{
  "contractName": "MRecord",
  "abi": [
    {
      "inputs": [],
      "stateMutability": "nonpayable",
      "type": "constructor"
    },
    {
      "inputs": [],
      "name": "doctorCount",
      "outputs": [
        {
          "internalType": "uint256",
          "name": "",
          "type": "uint256"
        }
      ],
      "stateMutability": "view",
      "type": "function",
      "constant": true
    },
    {
      "inputs": [
        {
          "internalType": "uint256",
          "name": "",
          "type": "uint256"
        }
      ],
      "name": "doctorList",
      "outputs": [
        {
          "internalType": "address",
          "name": "",
          "type": "address"
        }
      ],
      "stateMutability": "view",
      "type": "function",
      "constant": true
    },
    {
      "inputs": [
        {
          "internalType": "address",
          "name": "",
          "type": "address"
        }
      ],
      "name": "doctors",
      "outputs": [
        {
          "internalType": "string",
          "name": "ic",
          "type": "string"
        },
        {
          "internalType": "string",
          "name": "name",
          "type": "string"
        },
        {
          "internalType": "string",
          "name": "phone",
          "type": "string"
        },
        {
          "internalType": "string",
          "name": "qualification",
          "type": "string"
        },
        {
          "internalType": "string",
          "name": "major",
          "type": "string"
        },
        {
          "internalType": "address",
          "name": "addr",
          "type": "address"
        },
        {
          "internalType": "uint256",
          "name": "date",
          "type": "uint256"
        }
      ],
      "stateMutability": "view",
      "type": "function",
      "constant": true
    },
    {
      "inputs": [
        {
          "internalType": "address",
          "name": "",
          "type": "address"
        },
        {
          "internalType": "address",
          "name": "",
          "type": "address"
        }
      ],
      "name": "isApproved",
      "outputs": [
        {
          "internalType": "bool",
          "name": "",
          "type": "bool"
        }
      ],
      "stateMutability": "view",
      "type": "function",
      "constant": true
    },
    {
      "inputs": [
        {
          "internalType": "address",
          "name": "",
          "type": "address"
        }
      ],
      "name": "isDoctor",
      "outputs": [
        {
          "internalType": "bool",
          "name": "",
          "type": "bool"
        }
      ],
      "stateMutability": "view",
      "type": "function",
      "constant": true
    },
    {
      "inputs": [
        {
          "internalType": "address",
          "name": "",
          "type": "address"
        }
      ],
      "name": "isPatient",
      "outputs": [
        {
          "internalType": "bool",
          "name": "",
          "type": "bool"
        }
      ],
      "stateMutability": "view",
      "type": "function",
      "constant": true
    },
    {
      "inputs": [],
      "name": "owner",
      "outputs": [
        {
          "internalType": "address",
          "name": "",
          "type": "address"
        }
      ],
      "stateMutability": "view",
      "type": "function",
      "constant": true
    },
    {
      "inputs": [],
      "name": "patientCount",
      "outputs": [
        {
          "internalType": "uint256",
          "name": "",
          "type": "uint256"
        }
      ],
      "stateMutability": "view",
      "type": "function",
      "constant": true
    },
    {
      "inputs": [
        {
          "internalType": "uint256",
          "name": "",
          "type": "uint256"
        }
      ],
      "name": "patientList",
      "outputs": [
        {
          "internalType": "address",
          "name": "",
          "type": "address"
        }
      ],
      "stateMutability": "view",
      "type": "function",
      "constant": true
    },
    {
      "inputs": [
        {
          "internalType": "address",
          "name": "",
          "type": "address"
        }
      ],
      "name": "patients",
      "outputs": [
        {
          "internalType": "string",
          "name": "name",
          "type": "string"
        },
        {
          "internalType": "string",
          "name": "dob",
          "type": "string"
        },
        {
          "internalType": "string",
          "name": "weight",
          "type": "string"
        },
        {
          "internalType": "string",
          "name": "bloodgroup",
          "type": "string"
        },
        {
          "internalType": "string",
          "name": "allergies",
          "type": "string"
        },
        {
          "internalType": "string",
          "name": "medication",
          "type": "string"
        },
        {
          "internalType": "uint256",
          "name": "date",
          "type": "uint256"
        }
      ],
      "stateMutability": "view",
      "type": "function",
      "constant": true
    },
    {
      "inputs": [],
      "name": "permissionGrantedCount",
      "outputs": [
        {
          "internalType": "uint256",
          "name": "",
          "type": "uint256"
        }
      ],
      "stateMutability": "view",
      "type": "function",
      "constant": true
    },
    {
      "inputs": [
        {
          "internalType": "string",
          "name": "_name",
          "type": "string"
        },
        {
          "internalType": "string",
          "name": "_dob",
          "type": "string"
        },
        {
          "internalType": "string",
          "name": "_weight",
          "type": "string"
        },
        {
          "internalType": "string",
          "name": "_bloodgroup",
          "type": "string"
        },
        {
          "internalType": "string",
          "name": "_allergies",
          "type": "string"
        },
        {
          "internalType": "string",
          "name": "_medication",
          "type": "string"
        }
      ],
      "name": "setDetails",
      "outputs": [],
      "stateMutability": "nonpayable",
      "type": "function"
    },
    {
      "inputs": [
        {
          "internalType": "string",
          "name": "_ic",
          "type": "string"
        },
        {
          "internalType": "string",
          "name": "_name",
          "type": "string"
        },
        {
          "internalType": "string",
          "name": "_phone",
          "type": "string"
        },
        {
          "internalType": "string",
          "name": "_qualification",
          "type": "string"
        },
        {
          "internalType": "string",
          "name": "_major",
          "type": "string"
        }
      ],
      "name": "setDoctor",
      "outputs": [],
      "stateMutability": "nonpayable",
      "type": "function"
    },
    {
      "inputs": [
        {
          "internalType": "address",
          "name": "_address",
          "type": "address"
        }
      ],
      "name": "givePermission",
      "outputs": [
        {
          "internalType": "bool",
          "name": "success",
          "type": "bool"
        }
      ],
      "stateMutability": "nonpayable",
      "type": "function"
    },
    {
      "inputs": [
        {
          "internalType": "address",
          "name": "_address",
          "type": "address"
        }
      ],
      "name": "revokePermission",
      "outputs": [
        {
          "internalType": "bool",
          "name": "success",
          "type": "bool"
        }
      ],
      "stateMutability": "nonpayable",
      "type": "function"
    },
    {
      "inputs": [],
      "name": "getPatients",
      "outputs": [
        {
          "internalType": "address[]",
          "name": "",
          "type": "address[]"
        }
      ],
      "stateMutability": "view",
      "type": "function",
      "constant": true
    },
    {
      "inputs": [],
      "name": "getDoctors",
      "outputs": [
        {
          "internalType": "address[]",
          "name": "",
          "type": "address[]"
        }
      ],
      "stateMutability": "view",
      "type": "function",
      "constant": true
    },
    {
      "inputs": [
        {
          "internalType": "address",
          "name": "_address",
          "type": "address"
        }
      ],
      "name": "searchPatientDemographic",
      "outputs": [
        {
          "internalType": "string",
          "name": "",
          "type": "string"
        },
        {
          "internalType": "string",
          "name": "",
          "type": "string"
        },
        {
          "internalType": "string",
          "name": "",
          "type": "string"
        }
      ],
      "stateMutability": "view",
      "type": "function",
      "constant": true
    },
    {
      "inputs": [
        {
          "internalType": "address",
          "name": "_address",
          "type": "address"
        }
      ],
      "name": "searchPatientMedical",
      "outputs": [
        {
          "internalType": "string",
          "name": "",
          "type": "string"
        },
        {
          "internalType": "string",
          "name": "",
          "type": "string"
        },
        {
          "internalType": "string",
          "name": "",
          "type": "string"
        }
      ],
      "stateMutability": "view",
      "type": "function",
      "constant": true
    },
    {
      "inputs": [
        {
          "internalType": "address",
          "name": "_address",
          "type": "address"
        }
      ],
      "name": "searchDoctor",
      "outputs": [
        {
          "internalType": "string",
          "name": "",
          "type": "string"
        },
        {
          "internalType": "string",
          "name": "",
          "type": "string"
        },
        {
          "internalType": "string",
          "name": "",
          "type": "string"
        },
        {
          "internalType": "string",
          "name": "",
          "type": "string"
        },
        {
          "internalType": "string",
          "name": "",
          "type": "string"
        }
      ],
      "stateMutability": "view",
      "type": "function",
      "constant": true
    },
    {
      "inputs": [
        {
          "internalType": "address",
          "name": "_address",
          "type": "address"
        }
      ],
      "name": "searchRecordDate",
      "outputs": [
        {
          "internalType": "uint256",
          "name": "",
          "type": "uint256"
        }
      ],
      "stateMutability": "view",
      "type": "function",
      "constant": true
    },
    {
      "inputs": [
        {
          "internalType": "address",
          "name": "_address",
          "type": "address"
        }
      ],
      "name": "searchDoctorDate",
      "outputs": [
        {
          "internalType": "uint256",
          "name": "",
          "type": "uint256"
        }
      ],
      "stateMutability": "view",
      "type": "function",
      "constant": true
    },
    {
      "inputs": [],
      "name": "getPatientCount",
      "outputs": [
        {
          "internalType": "uint256",
          "name": "",
          "type": "uint256"
        }
      ],
      "stateMutability": "view",
      "type": "function",
      "constant": true
    },
    {
      "inputs": [],
      "name": "getDoctorCount",
      "outputs": [
        {
          "internalType": "uint256",
          "name": "",
          "type": "uint256"
        }
      ],
      "stateMutability": "view",
      "type": "function",
      "constant": true
    },
    {
      "inputs": [],
      "name": "getPermissionGrantedCount",
      "outputs": [
        {
          "internalType": "uint256",
          "name": "",
          "type": "uint256"
        }
      ],
      "stateMutability": "view",
      "type": "function",
      "constant": true
    }
  ],
  "bytecode": "0x6080604052600060085560006009556000600a5534801561001f57600080fd5b50336000806101000a81548173ffffffffffffffffffffffffffffffffffffffff021916908373ffffffffffffffffffffffffffffffffffffffff16021790555061344c8061006f6000396000f3fe608060405234801561001057600080fd5b50600436106101735760003560e01c80638f9c79ed116100de578063a9b3725211610097578063bd6f972b11610071578063bd6f972b146104d2578063c0cb24ba14610502578063c190665b14610520578063caee6c851461053e57610173565b8063a9b3725214610468578063b13d5d9414610484578063babb1d41146104a257610173565b80638f9c79ed14610354578063996440c614610384578063a0303c41146103b4578063a389783e146103d2578063a3bf5b9a14610402578063a9583c221461043257610173565b80633d391f70116101305780633d391f701461027e57806344487ef0146102ae578063625961fc146102ca57806378522bc4146102fa57806379111c1c146103185780638da5cb5b1461033657610173565b80630869cfbc14610178578063127ca4b4146101ae57806312ad1c37146101de57806324c24b2b146101fc5780632a825ba01461021a5780633bc982801461024c575b600080fd5b610192600480360381019061018d9190612899565b610572565b6040516101a5979695949392919061296f565b60405180910390f35b6101c860048036038101906101c39190612a34565b6108e4565b6040516101d59190612a70565b60405180910390f35b6101e6610923565b6040516101f39190612b49565b60405180910390f35b6102046109b1565b6040516102119190612b6b565b60405180910390f35b610234600480360381019061022f9190612899565b6109bb565b60405161024393929190612b86565b60405180910390f35b61026660048036038101906102619190612899565b610e34565b60405161027593929190612b86565b60405180910390f35b61029860048036038101906102939190612899565b6112ad565b6040516102a59190612bed565b60405180910390f35b6102c860048036038101906102c39190612d3d565b611365565b005b6102e460048036038101906102df9190612899565b611526565b6040516102f19190612b6b565b60405180910390f35b6103026118bc565b60405161030f9190612b6b565b60405180910390f35b6103206118c2565b60405161032d9190612b6b565b60405180910390f35b61033e6118cc565b60405161034b9190612a70565b60405180910390f35b61036e60048036038101906103699190612899565b6118f0565b60405161037b9190612bed565b60405180910390f35b61039e60048036038101906103999190612899565b611910565b6040516103ab9190612bed565b60405180910390f35b6103bc611930565b6040516103c99190612b6b565b60405180910390f35b6103ec60048036038101906103e79190612e72565b611936565b6040516103f99190612bed565b60405180910390f35b61041c60048036038101906104179190612899565b611965565b6040516104299190612bed565b60405180910390f35b61044c60048036038101906104479190612899565b611a04565b60405161045f9796959493929190612eb2565b60405180910390f35b610482600480360381019061047d9190612f44565b611d0e565b005b61048c611f29565b6040516104999190612b49565b60405180910390f35b6104bc60048036038101906104b79190612a34565b611fb7565b6040516104c99190612a70565b60405180910390f35b6104ec60048036038101906104e79190612899565b611ff6565b6040516104f99190612b6b565b60405180910390f35b61050a6123c8565b6040516105179190612b6b565b60405180910390f35b6105286123ce565b6040516105359190612b6b565b60405180910390f35b61055860048036038101906105539190612899565b6123d8565b60405161056995949392919061304b565b60405180910390f35b6003602052806000526040600020600091509050806000018054610595906130f0565b80601f01602080910402602001604051908101604052809291908181526020018280546105c1906130f0565b801561060e5780601f106105e35761010080835404028352916020019161060e565b820191906000526020600020905b8154815290600101906020018083116105f157829003601f168201915b505050505090806001018054610623906130f0565b80601f016020809104026020016040519081016040528092919081815260200182805461064f906130f0565b801561069c5780601f106106715761010080835404028352916020019161069c565b820191906000526020600020905b81548152906001019060200180831161067f57829003601f168201915b5050505050908060020180546106b1906130f0565b80601f01602080910402602001604051908101604052809291908181526020018280546106dd906130f0565b801561072a5780601f106106ff5761010080835404028352916020019161072a565b820191906000526020600020905b81548152906001019060200180831161070d57829003601f168201915b50505050509080600301805461073f906130f0565b80601f016020809104026020016040519081016040528092919081815260200182805461076b906130f0565b80156107b85780601f1061078d576101008083540402835291602001916107b8565b820191906000526020600020905b81548152906001019060200180831161079b57829003601f168201915b5050505050908060040180546107cd906130f0565b80601f01602080910402602001604051908101604052809291908181526020018280546107f9906130f0565b80156108465780601f1061081b57610100808354040283529160200191610846565b820191906000526020600020905b81548152906001019060200180831161082957829003601f168201915b50505050509080600501805461085b906130f0565b80601f0160208091040260200160405190810160405280929190818152602001828054610887906130f0565b80156108d45780601f106108a9576101008083540402835291602001916108d4565b820191906000526020600020905b8154815290600101906020018083116108b757829003601f168201915b5050505050908060060154905087565b600281815481106108f457600080fd5b906000526020600020016000915054906101000a900473ffffffffffffffffffffffffffffffffffffffff1681565b606060018054806020026020016040519081016040528092919081815260200182805480156109a757602002820191906000526020600020905b8160009054906101000a900473ffffffffffffffffffffffffffffffffffffffff1673ffffffffffffffffffffffffffffffffffffffff168152602001906001019080831161095d575b5050505050905090565b6000600a54905090565b6060806060600560008573ffffffffffffffffffffffffffffffffffffffff1673ffffffffffffffffffffffffffffffffffffffff16815260200190815260200160002060003373ffffffffffffffffffffffffffffffffffffffff1673ffffffffffffffffffffffffffffffffffffffff16815260200190815260200160002060009054906101000a900460ff16610a5357600080fd5b6000600360008673ffffffffffffffffffffffffffffffffffffffff1673ffffffffffffffffffffffffffffffffffffffff1681526020019081526020016000206040518060e0016040529081600082018054610aaf906130f0565b80601f0160208091040260200160405190810160405280929190818152602001828054610adb906130f0565b8015610b285780601f10610afd57610100808354040283529160200191610b28565b820191906000526020600020905b815481529060010190602001808311610b0b57829003601f168201915b50505050508152602001600182018054610b41906130f0565b80601f0160208091040260200160405190810160405280929190818152602001828054610b6d906130f0565b8015610bba5780601f10610b8f57610100808354040283529160200191610bba565b820191906000526020600020905b815481529060010190602001808311610b9d57829003601f168201915b50505050508152602001600282018054610bd3906130f0565b80601f0160208091040260200160405190810160405280929190818152602001828054610bff906130f0565b8015610c4c5780601f10610c2157610100808354040283529160200191610c4c565b820191906000526020600020905b815481529060010190602001808311610c2f57829003601f168201915b50505050508152602001600382018054610c65906130f0565b80601f0160208091040260200160405190810160405280929190818152602001828054610c91906130f0565b8015610cde5780601f10610cb357610100808354040283529160200191610cde565b820191906000526020600020905b815481529060010190602001808311610cc157829003601f168201915b50505050508152602001600482018054610cf7906130f0565b80601f0160208091040260200160405190810160405280929190818152602001828054610d23906130f0565b8015610d705780601f10610d4557610100808354040283529160200191610d70565b820191906000526020600020905b815481529060010190602001808311610d5357829003601f168201915b50505050508152602001600582018054610d89906130f0565b80601f0160208091040260200160405190810160405280929190818152602001828054610db5906130f0565b8015610e025780601f10610dd757610100808354040283529160200191610e02565b820191906000526020600020905b815481529060010190602001808311610de557829003601f168201915b505050505081526020016006820154815250509050806060015181608001518260a00151935093509350509193909250565b6060806060600560008573ffffffffffffffffffffffffffffffffffffffff1673ffffffffffffffffffffffffffffffffffffffff16815260200190815260200160002060003373ffffffffffffffffffffffffffffffffffffffff1673ffffffffffffffffffffffffffffffffffffffff16815260200190815260200160002060009054906101000a900460ff16610ecc57600080fd5b6000600360008673ffffffffffffffffffffffffffffffffffffffff1673ffffffffffffffffffffffffffffffffffffffff1681526020019081526020016000206040518060e0016040529081600082018054610f28906130f0565b80601f0160208091040260200160405190810160405280929190818152602001828054610f54906130f0565b8015610fa15780601f10610f7657610100808354040283529160200191610fa1565b820191906000526020600020905b815481529060010190602001808311610f8457829003601f168201915b50505050508152602001600182018054610fba906130f0565b80601f0160208091040260200160405190810160405280929190818152602001828054610fe6906130f0565b80156110335780601f1061100857610100808354040283529160200191611033565b820191906000526020600020905b81548152906001019060200180831161101657829003601f168201915b5050505050815260200160028201805461104c906130f0565b80601f0160208091040260200160405190810160405280929190818152602001828054611078906130f0565b80156110c55780601f1061109a576101008083540402835291602001916110c5565b820191906000526020600020905b8154815290600101906020018083116110a857829003601f168201915b505050505081526020016003820180546110de906130f0565b80601f016020809104026020016040519081016040528092919081815260200182805461110a906130f0565b80156111575780601f1061112c57610100808354040283529160200191611157565b820191906000526020600020905b81548152906001019060200180831161113a57829003601f168201915b50505050508152602001600482018054611170906130f0565b80601f016020809104026020016040519081016040528092919081815260200182805461119c906130f0565b80156111e95780601f106111be576101008083540402835291602001916111e9565b820191906000526020600020905b8154815290600101906020018083116111cc57829003601f168201915b50505050508152602001600582018054611202906130f0565b80601f016020809104026020016040519081016040528092919081815260200182805461122e906130f0565b801561127b5780601f106112505761010080835404028352916020019161127b565b820191906000526020600020905b81548152906001019060200180831161125e57829003601f168201915b505050505081526020016006820154815250509050806000015181602001518260400151935093509350509193909250565b60006001600560003373ffffffffffffffffffffffffffffffffffffffff1673ffffffffffffffffffffffffffffffffffffffff16815260200190815260200160002060008473ffffffffffffffffffffffffffffffffffffffff1673ffffffffffffffffffffffffffffffffffffffff16815260200190815260200160002060006101000a81548160ff021916908315150217905550600a600081548092919061135790613150565b919050555060019050919050565b600660003373ffffffffffffffffffffffffffffffffffffffff1673ffffffffffffffffffffffffffffffffffffffff16815260200190815260200160002060009054906101000a900460ff16156113bc57600080fd5b6000600360003373ffffffffffffffffffffffffffffffffffffffff1673ffffffffffffffffffffffffffffffffffffffff1681526020019081526020016000209050868160000190816114109190613344565b50858160010190816114229190613344565b50848160020190816114349190613344565b50611441848484846127eb565b4281600601819055506001339080600181540180825580915050600190039060005260206000200160009091909190916101000a81548173ffffffffffffffffffffffffffffffffffffffff021916908373ffffffffffffffffffffffffffffffffffffffff1602179055506001600660003373ffffffffffffffffffffffffffffffffffffffff1673ffffffffffffffffffffffffffffffffffffffff16815260200190815260200160002060006101000a81548160ff0219169083151502179055506008600081548092919061151890613150565b919050555050505050505050565b600080600460008473ffffffffffffffffffffffffffffffffffffffff1673ffffffffffffffffffffffffffffffffffffffff1681526020019081526020016000206040518060e0016040529081600082018054611583906130f0565b80601f01602080910402602001604051908101604052809291908181526020018280546115af906130f0565b80156115fc5780601f106115d1576101008083540402835291602001916115fc565b820191906000526020600020905b8154815290600101906020018083116115df57829003601f168201915b50505050508152602001600182018054611615906130f0565b80601f0160208091040260200160405190810160405280929190818152602001828054611641906130f0565b801561168e5780601f106116635761010080835404028352916020019161168e565b820191906000526020600020905b81548152906001019060200180831161167157829003601f168201915b505050505081526020016002820180546116a7906130f0565b80601f01602080910402602001604051908101604052809291908181526020018280546116d3906130f0565b80156117205780601f106116f557610100808354040283529160200191611720565b820191906000526020600020905b81548152906001019060200180831161170357829003601f168201915b50505050508152602001600382018054611739906130f0565b80601f0160208091040260200160405190810160405280929190818152602001828054611765906130f0565b80156117b25780601f10611787576101008083540402835291602001916117b2565b820191906000526020600020905b81548152906001019060200180831161179557829003601f168201915b505050505081526020016004820180546117cb906130f0565b80601f01602080910402602001604051908101604052809291908181526020018280546117f7906130f0565b80156118445780601f1061181957610100808354040283529160200191611844565b820191906000526020600020905b81548152906001019060200180831161182757829003601f168201915b505050505081526020016005820160009054906101000a900473ffffffffffffffffffffffffffffffffffffffff1673ffffffffffffffffffffffffffffffffffffffff1673ffffffffffffffffffffffffffffffffffffffff16815260200160068201548152505090508060c00151915050919050565b60095481565b6000600954905090565b60008054906101000a900473ffffffffffffffffffffffffffffffffffffffff1681565b60066020528060005260406000206000915054906101000a900460ff1681565b60076020528060005260406000206000915054906101000a900460ff1681565b60085481565b60056020528160005260406000206020528060005260406000206000915091509054906101000a900460ff1681565b600080600560003373ffffffffffffffffffffffffffffffffffffffff1673ffffffffffffffffffffffffffffffffffffffff16815260200190815260200160002060008473ffffffffffffffffffffffffffffffffffffffff1673ffffffffffffffffffffffffffffffffffffffff16815260200190815260200160002060006101000a81548160ff02191690831515021790555060019050919050565b6004602052806000526040600020600091509050806000018054611a27906130f0565b80601f0160208091040260200160405190810160405280929190818152602001828054611a53906130f0565b8015611aa05780601f10611a7557610100808354040283529160200191611aa0565b820191906000526020600020905b815481529060010190602001808311611a8357829003601f168201915b505050505090806001018054611ab5906130f0565b80601f0160208091040260200160405190810160405280929190818152602001828054611ae1906130f0565b8015611b2e5780601f10611b0357610100808354040283529160200191611b2e565b820191906000526020600020905b815481529060010190602001808311611b1157829003601f168201915b505050505090806002018054611b43906130f0565b80601f0160208091040260200160405190810160405280929190818152602001828054611b6f906130f0565b8015611bbc5780601f10611b9157610100808354040283529160200191611bbc565b820191906000526020600020905b815481529060010190602001808311611b9f57829003601f168201915b505050505090806003018054611bd1906130f0565b80601f0160208091040260200160405190810160405280929190818152602001828054611bfd906130f0565b8015611c4a5780601f10611c1f57610100808354040283529160200191611c4a565b820191906000526020600020905b815481529060010190602001808311611c2d57829003601f168201915b505050505090806004018054611c5f906130f0565b80601f0160208091040260200160405190810160405280929190818152602001828054611c8b906130f0565b8015611cd85780601f10611cad57610100808354040283529160200191611cd8565b820191906000526020600020905b815481529060010190602001808311611cbb57829003601f168201915b5050505050908060050160009054906101000a900473ffffffffffffffffffffffffffffffffffffffff16908060060154905087565b600760003373ffffffffffffffffffffffffffffffffffffffff1673ffffffffffffffffffffffffffffffffffffffff16815260200190815260200160002060009054906101000a900460ff1615611d6557600080fd5b6000600460003373ffffffffffffffffffffffffffffffffffffffff1673ffffffffffffffffffffffffffffffffffffffff168152602001908152602001600020905085816000019081611db99190613344565b5084816001019081611dcb9190613344565b5083816002019081611ddd9190613344565b5082816003019081611def9190613344565b5081816004019081611e019190613344565b50338160050160006101000a81548173ffffffffffffffffffffffffffffffffffffffff021916908373ffffffffffffffffffffffffffffffffffffffff1602179055504281600601819055506002339080600181540180825580915050600190039060005260206000200160009091909190916101000a81548173ffffffffffffffffffffffffffffffffffffffff021916908373ffffffffffffffffffffffffffffffffffffffff1602179055506001600760003373ffffffffffffffffffffffffffffffffffffffff1673ffffffffffffffffffffffffffffffffffffffff16815260200190815260200160002060006101000a81548160ff02191690831515021790555060096000815480929190611f1c90613150565b9190505550505050505050565b60606002805480602002602001604051908101604052809291908181526020018280548015611fad57602002820191906000526020600020905b8160009054906101000a900473ffffffffffffffffffffffffffffffffffffffff1673ffffffffffffffffffffffffffffffffffffffff1681526020019060010190808311611f63575b5050505050905090565b60018181548110611fc757600080fd5b906000526020600020016000915054906101000a900473ffffffffffffffffffffffffffffffffffffffff1681565b600080600360008473ffffffffffffffffffffffffffffffffffffffff1673ffffffffffffffffffffffffffffffffffffffff1681526020019081526020016000206040518060e0016040529081600082018054612053906130f0565b80601f016020809104026020016040519081016040528092919081815260200182805461207f906130f0565b80156120cc5780601f106120a1576101008083540402835291602001916120cc565b820191906000526020600020905b8154815290600101906020018083116120af57829003601f168201915b505050505081526020016001820180546120e5906130f0565b80601f0160208091040260200160405190810160405280929190818152602001828054612111906130f0565b801561215e5780601f106121335761010080835404028352916020019161215e565b820191906000526020600020905b81548152906001019060200180831161214157829003601f168201915b50505050508152602001600282018054612177906130f0565b80601f01602080910402602001604051908101604052809291908181526020018280546121a3906130f0565b80156121f05780601f106121c5576101008083540402835291602001916121f0565b820191906000526020600020905b8154815290600101906020018083116121d357829003601f168201915b50505050508152602001600382018054612209906130f0565b80601f0160208091040260200160405190810160405280929190818152602001828054612235906130f0565b80156122825780601f1061225757610100808354040283529160200191612282565b820191906000526020600020905b81548152906001019060200180831161226557829003601f168201915b5050505050815260200160048201805461229b906130f0565b80601f01602080910402602001604051908101604052809291908181526020018280546122c7906130f0565b80156123145780601f106122e957610100808354040283529160200191612314565b820191906000526020600020905b8154815290600101906020018083116122f757829003601f168201915b5050505050815260200160058201805461232d906130f0565b80601f0160208091040260200160405190810160405280929190818152602001828054612359906130f0565b80156123a65780601f1061237b576101008083540402835291602001916123a6565b820191906000526020600020905b81548152906001019060200180831161238957829003601f168201915b5050505050815260200160068201548152505090508060c00151915050919050565b600a5481565b6000600854905090565b6060806060806060600760008773ffffffffffffffffffffffffffffffffffffffff1673ffffffffffffffffffffffffffffffffffffffff16815260200190815260200160002060009054906101000a900460ff1661243657600080fd5b6000600460008873ffffffffffffffffffffffffffffffffffffffff1673ffffffffffffffffffffffffffffffffffffffff1681526020019081526020016000206040518060e0016040529081600082018054612492906130f0565b80601f01602080910402602001604051908101604052809291908181526020018280546124be906130f0565b801561250b5780601f106124e05761010080835404028352916020019161250b565b820191906000526020600020905b8154815290600101906020018083116124ee57829003601f168201915b50505050508152602001600182018054612524906130f0565b80601f0160208091040260200160405190810160405280929190818152602001828054612550906130f0565b801561259d5780601f106125725761010080835404028352916020019161259d565b820191906000526020600020905b81548152906001019060200180831161258057829003601f168201915b505050505081526020016002820180546125b6906130f0565b80601f01602080910402602001604051908101604052809291908181526020018280546125e2906130f0565b801561262f5780601f106126045761010080835404028352916020019161262f565b820191906000526020600020905b81548152906001019060200180831161261257829003601f168201915b50505050508152602001600382018054612648906130f0565b80601f0160208091040260200160405190810160405280929190818152602001828054612674906130f0565b80156126c15780601f10612696576101008083540402835291602001916126c1565b820191906000526020600020905b8154815290600101906020018083116126a457829003601f168201915b505050505081526020016004820180546126da906130f0565b80601f0160208091040260200160405190810160405280929190818152602001828054612706906130f0565b80156127535780601f1061272857610100808354040283529160200191612753565b820191906000526020600020905b81548152906001019060200180831161273657829003601f168201915b505050505081526020016005820160009054906101000a900473ffffffffffffffffffffffffffffffffffffffff1673ffffffffffffffffffffffffffffffffffffffff1673ffffffffffffffffffffffffffffffffffffffff168152602001600682015481525050905080600001518160200151826040015183606001518460800151955095509550955095505091939590929450565b838160030190816127fc9190613344565b508281600401908161280e9190613344565b50818160050190816128209190613344565b5050505050565b6000604051905090565b600080fd5b600080fd5b600073ffffffffffffffffffffffffffffffffffffffff82169050919050565b60006128668261283b565b9050919050565b6128768161285b565b811461288157600080fd5b50565b6000813590506128938161286d565b92915050565b6000602082840312156128af576128ae612831565b5b60006128bd84828501612884565b91505092915050565b600081519050919050565b600082825260208201905092915050565b60005b838110156129005780820151818401526020810190506128e5565b60008484015250505050565b6000601f19601f8301169050919050565b6000612928826128c6565b61293281856128d1565b93506129428185602086016128e2565b61294b8161290c565b840191505092915050565b6000819050919050565b61296981612956565b82525050565b600060e0820190508181036000830152612989818a61291d565b9050818103602083015261299d818961291d565b905081810360408301526129b1818861291d565b905081810360608301526129c5818761291d565b905081810360808301526129d9818661291d565b905081810360a08301526129ed818561291d565b90506129fc60c0830184612960565b98975050505050505050565b612a1181612956565b8114612a1c57600080fd5b50565b600081359050612a2e81612a08565b92915050565b600060208284031215612a4a57612a49612831565b5b6000612a5884828501612a1f565b91505092915050565b612a6a8161285b565b82525050565b6000602082019050612a856000830184612a61565b92915050565b600081519050919050565b600082825260208201905092915050565b6000819050602082019050919050565b612ac08161285b565b82525050565b6000612ad28383612ab7565b60208301905092915050565b6000602082019050919050565b6000612af682612a8b565b612b008185612a96565b9350612b0b83612aa7565b8060005b83811015612b3c578151612b238882612ac6565b9750612b2e83612ade565b925050600181019050612b0f565b5085935050505092915050565b60006020820190508181036000830152612b638184612aeb565b905092915050565b6000602082019050612b806000830184612960565b92915050565b60006060820190508181036000830152612ba0818661291d565b90508181036020830152612bb4818561291d565b90508181036040830152612bc8818461291d565b9050949350505050565b60008115159050919050565b612be781612bd2565b82525050565b6000602082019050612c026000830184612bde565b92915050565b600080fd5b600080fd5b7f4e487b7100000000000000000000000000000000000000000000000000000000600052604160045260246000fd5b612c4a8261290c565b810181811067ffffffffffffffff82111715612c6957612c68612c12565b5b80604052505050565b6000612c7c612827565b9050612c888282612c41565b919050565b600067ffffffffffffffff821115612ca857612ca7612c12565b5b612cb18261290c565b9050602081019050919050565b82818337600083830152505050565b6000612ce0612cdb84612c8d565b612c72565b905082815260208101848484011115612cfc57612cfb612c0d565b5b612d07848285612cbe565b509392505050565b600082601f830112612d2457612d23612c08565b5b8135612d34848260208601612ccd565b91505092915050565b60008060008060008060c08789031215612d5a57612d59612831565b5b600087013567ffffffffffffffff811115612d7857612d77612836565b5b612d8489828a01612d0f565b965050602087013567ffffffffffffffff811115612da557612da4612836565b5b612db189828a01612d0f565b955050604087013567ffffffffffffffff811115612dd257612dd1612836565b5b612dde89828a01612d0f565b945050606087013567ffffffffffffffff811115612dff57612dfe612836565b5b612e0b89828a01612d0f565b935050608087013567ffffffffffffffff811115612e2c57612e2b612836565b5b612e3889828a01612d0f565b92505060a087013567ffffffffffffffff811115612e5957612e58612836565b5b612e6589828a01612d0f565b9150509295509295509295565b60008060408385031215612e8957612e88612831565b5b6000612e9785828601612884565b9250506020612ea885828601612884565b9150509250929050565b600060e0820190508181036000830152612ecc818a61291d565b90508181036020830152612ee0818961291d565b90508181036040830152612ef4818861291d565b90508181036060830152612f08818761291d565b90508181036080830152612f1c818661291d565b9050612f2b60a0830185612a61565b612f3860c0830184612960565b98975050505050505050565b600080600080600060a08688031215612f6057612f5f612831565b5b600086013567ffffffffffffffff811115612f7e57612f7d612836565b5b612f8a88828901612d0f565b955050602086013567ffffffffffffffff811115612fab57612faa612836565b5b612fb788828901612d0f565b945050604086013567ffffffffffffffff811115612fd857612fd7612836565b5b612fe488828901612d0f565b935050606086013567ffffffffffffffff81111561300557613004612836565b5b61301188828901612d0f565b925050608086013567ffffffffffffffff81111561303257613031612836565b5b61303e88828901612d0f565b9150509295509295909350565b600060a0820190508181036000830152613065818861291d565b90508181036020830152613079818761291d565b9050818103604083015261308d818661291d565b905081810360608301526130a1818561291d565b905081810360808301526130b5818461291d565b90509695505050505050565b7f4e487b7100000000000000000000000000000000000000000000000000000000600052602260045260246000fd5b6000600282049050600182168061310857607f821691505b60208210810361311b5761311a6130c1565b5b50919050565b7f4e487b7100000000000000000000000000000000000000000000000000000000600052601160045260246000fd5b600061315b82612956565b91507fffffffffffffffffffffffffffffffffffffffffffffffffffffffffffffffff820361318d5761318c613121565b5b600182019050919050565b60008190508160005260206000209050919050565b60006020601f8301049050919050565b600082821b905092915050565b6000600883026131fa7fffffffffffffffffffffffffffffffffffffffffffffffffffffffffffffffff826131bd565b61320486836131bd565b95508019841693508086168417925050509392505050565b6000819050919050565b600061324161323c61323784612956565b61321c565b612956565b9050919050565b6000819050919050565b61325b83613226565b61326f61326782613248565b8484546131ca565b825550505050565b600090565b613284613277565b61328f818484613252565b505050565b5b818110156132b3576132a860008261327c565b600181019050613295565b5050565b601f8211156132f8576132c981613198565b6132d2846131ad565b810160208510156132e1578190505b6132f56132ed856131ad565b830182613294565b50505b505050565b600082821c905092915050565b600061331b600019846008026132fd565b1980831691505092915050565b6000613334838361330a565b9150826002028217905092915050565b61334d826128c6565b67ffffffffffffffff81111561336657613365612c12565b5b61337082546130f0565b61337b8282856132b7565b600060209050601f8311600181146133ae576000841561339c578287015190505b6133a68582613328565b86555061340e565b601f1984166133bc86613198565b60005b828110156133e4578489015182556001820191506020850194506020810190506133bf565b8683101561340157848901516133fd601f89168261330a565b8355505b6001600288020188555050505b50505050505056fea2646970667358221220527dc553cef548d64aa79cd78709f8f417cef765738fa435427a655c8321ed5264736f6c63430008110033",
  "immutableReferences": {},
  "source": "// SPDX-License-Identifier: MIT\r\npragma solidity ^0.8.8;\r\n\r\ncontract MRecord {\r\n\r\n    struct Patient {\r\n        string name;\r\n        string dob;\r\n        string weight;\r\n        string bloodgroup;\r\n        string allergies;\r\n        string medication;\r\n        uint date;\r\n    }\r\n\r\n    struct Doctor {\r\n        string ic;\r\n        string name;\r\n        string phone;\r\n        string qualification;\r\n        string major;\r\n        address addr;\r\n        uint date;\r\n    }\r\n\r\n    address public owner;\r\n    address[] public patientList;\r\n    address[] public doctorList;\r\n\r\n    mapping(address => Patient) public patients;\r\n    mapping(address => Doctor) public doctors;\r\n\r\n    mapping(address => mapping(address => bool)) public isApproved;\r\n    mapping(address => bool) public isPatient;\r\n    mapping(address => bool) public isDoctor;\r\n    //mapping(address => uint) public appointmentCountPerPatient;\r\n\r\n    uint256 public patientCount = 0;\r\n    uint256 public doctorCount = 0;\r\n    // uint256 public appointmentCount = 0;\r\n    uint256 public permissionGrantedCount = 0;\r\n\r\n    constructor() {\r\n        owner = msg.sender;\r\n    }\r\n\r\n    function setDetails(string memory _name,   string memory _dob,  string memory _weight,  string memory _bloodgroup, string memory _allergies, string memory _medication) public {\r\n        require(!isPatient[msg.sender]);\r\n        Patient storage p = patients[msg.sender];\r\n    \r\n        p.name = _name;\r\n        p.dob = _dob;\r\n        p.weight = _weight;\r\n    \r\n    // Call internal function to set diagnostic details\r\n        setDiagnosticDetails(_bloodgroup, _allergies, _medication, p);\r\n    \r\n        p.date = block.timestamp;\r\n    \r\n        patientList.push(msg.sender);\r\n        isPatient[msg.sender] = true;\r\n        patientCount++;\r\n}\r\n\r\n// Internal function to set diagnostic details\r\n    function setDiagnosticDetails(string memory _bloodgroup, string memory _allergies, string memory _medication, Patient storage p) internal {\r\n        p.bloodgroup = _bloodgroup;\r\n        p.allergies = _allergies;\r\n        p.medication = _medication;\r\n}\r\n\r\n    function setDoctor(string memory _ic, string memory _name, string memory _phone,string memory _qualification, string memory _major) public {\r\n        require(!isDoctor[msg.sender]);\r\n        Doctor storage d = doctors[msg.sender];\r\n        \r\n        d.ic = _ic;\r\n        d.name = _name;\r\n        d.phone = _phone;\r\n        d.qualification = _qualification;\r\n        d.major = _major;\r\n        d.addr = msg.sender;\r\n        d.date = block.timestamp;\r\n        \r\n        doctorList.push(msg.sender);\r\n        isDoctor[msg.sender] = true;\r\n        doctorCount++;\r\n    }\r\n\r\n        function givePermission(address _address) public returns(bool success) {\r\n        isApproved[msg.sender][_address] = true;\r\n        permissionGrantedCount++;\r\n        return true;\r\n    }\r\n\r\n    function revokePermission(address _address) public returns(bool success) {\r\n        isApproved[msg.sender][_address] = false;\r\n        return true;\r\n    }\r\n\r\n    function getPatients() public view returns(address[] memory) {\r\n        return patientList;\r\n    }\r\n\r\n    function getDoctors() public view returns(address[] memory) {\r\n        return doctorList;\r\n    }\r\n\r\n    function searchPatientDemographic(address _address) public view returns(string memory, string memory, string memory) {\r\n        require(isApproved[_address][msg.sender]);\r\n        \r\n        Patient memory p = patients[_address];\r\n        \r\n        return (p.name, p.dob, p.weight);\r\n    }\r\n\r\n    function searchPatientMedical(address _address) public view returns(string memory, string memory, string memory) {\r\n        require(isApproved[_address][msg.sender]);\r\n        \r\n        Patient memory p = patients[_address];\r\n        \r\n        return ( p.bloodgroup, p.allergies, p.medication);\r\n    }   \r\n\r\n    function searchDoctor(address _address) public view returns(string memory, string memory, string memory, string memory, string memory) {\r\n        require(isDoctor[_address]);\r\n        \r\n        Doctor memory d = doctors[_address];\r\n        \r\n        return (d.ic, d.name, d.phone, d.qualification, d.major);\r\n    }\r\n    \r\n    function searchRecordDate(address _address) public view returns(uint) {\r\n        Patient memory p = patients[_address];\r\n        \r\n        return (p.date);\r\n    }\r\n\r\n    function searchDoctorDate(address _address) public view returns(uint) {\r\n        Doctor memory d = doctors[_address];\r\n        \r\n        return (d.date);\r\n    }\r\n\r\n    function getPatientCount() public view returns(uint256) {\r\n        return patientCount;\r\n    }\r\n\r\n    function getDoctorCount() public view returns(uint256) {\r\n        return doctorCount;\r\n    }\r\n\r\n    function getPermissionGrantedCount() public view returns(uint256) {\r\n        return permissionGrantedCount;\r\n    }\r\n\r\n}\r\n\r\n\r\n\r\n",
  "sourcePath": "E:\\My Blockchain-Medical Records\\contracts\\MRecord.sol",
  "compiler": {
    "name": "solc",
    "version": "0.8.17+commit.8df45f5f.Emscripten.clang"
  },
  "schemaVersion": "3.4.16",
  "updatedAt": "2024-05-08T15:30:39.623Z",
  "networkType": "ethereum",
  "devdoc": {
    "kind": "dev",
    "methods": {},
    "version": 1
  },
  "userdoc": {
    "kind": "user",
    "methods": {},
    "version": 1
  }
}